{
  "_format": "hh-sol-artifact-1",
  "contractName": "Raffle",
  "sourceName": "contracts/Raffle.sol",
  "abi": [
    {
      "inputs": [
        {
          "internalType": "address",
          "name": "RTT",
          "type": "address"
        }
      ],
      "stateMutability": "nonpayable",
      "type": "constructor"
    },
    {
      "anonymous": false,
      "inputs": [
        {
          "indexed": true,
          "internalType": "address",
          "name": "previousOwner",
          "type": "address"
        },
        {
          "indexed": true,
          "internalType": "address",
          "name": "newOwner",
          "type": "address"
        }
      ],
      "name": "OwnershipTransferred",
      "type": "event"
    },
    {
      "anonymous": false,
      "inputs": [
        {
          "indexed": false,
          "internalType": "address",
          "name": "account",
          "type": "address"
        }
      ],
      "name": "Paused",
      "type": "event"
    },
    {
      "anonymous": false,
      "inputs": [
        {
          "indexed": false,
          "internalType": "address",
          "name": "account",
          "type": "address"
        }
      ],
      "name": "Unpaused",
      "type": "event"
    },
    {
      "inputs": [
        {
          "internalType": "uint256",
          "name": "",
          "type": "uint256"
        }
      ],
      "name": "_btcPrice",
      "outputs": [
        {
          "internalType": "uint256",
          "name": "",
          "type": "uint256"
        }
      ],
      "stateMutability": "view",
      "type": "function"
    },
    {
      "inputs": [
        {
          "internalType": "bool",
          "name": "prediction",
          "type": "bool"
        }
      ],
      "name": "createRaffle",
      "outputs": [],
      "stateMutability": "nonpayable",
      "type": "function"
    },
    {
      "inputs": [
        {
          "internalType": "uint256",
          "name": "amount",
          "type": "uint256"
        }
      ],
      "name": "deposit",
      "outputs": [],
      "stateMutability": "nonpayable",
      "type": "function"
    },
    {
      "inputs": [],
      "name": "getBalance",
      "outputs": [
        {
          "internalType": "uint256",
          "name": "",
          "type": "uint256"
        }
      ],
      "stateMutability": "view",
      "type": "function"
    },
    {
      "inputs": [],
      "name": "getValutBalance",
      "outputs": [
        {
          "internalType": "uint256",
          "name": "",
          "type": "uint256"
        }
      ],
      "stateMutability": "view",
      "type": "function"
    },
    {
      "inputs": [],
      "name": "owner",
      "outputs": [
        {
          "internalType": "address",
          "name": "",
          "type": "address"
        }
      ],
      "stateMutability": "view",
      "type": "function"
    },
    {
      "inputs": [],
      "name": "pause",
      "outputs": [],
      "stateMutability": "nonpayable",
      "type": "function"
    },
    {
      "inputs": [],
      "name": "paused",
      "outputs": [
        {
          "internalType": "bool",
          "name": "",
          "type": "bool"
        }
      ],
      "stateMutability": "view",
      "type": "function"
    },
    {
      "inputs": [
        {
          "internalType": "uint256",
          "name": "",
          "type": "uint256"
        },
        {
          "internalType": "uint256",
          "name": "",
          "type": "uint256"
        }
      ],
      "name": "raffleEventAddress",
      "outputs": [
        {
          "internalType": "address",
          "name": "",
          "type": "address"
        }
      ],
      "stateMutability": "view",
      "type": "function"
    },
    {
      "inputs": [
        {
          "internalType": "uint256",
          "name": "",
          "type": "uint256"
        },
        {
          "internalType": "address",
          "name": "",
          "type": "address"
        }
      ],
      "name": "raffleEventPrediction",
      "outputs": [
        {
          "internalType": "bool",
          "name": "",
          "type": "bool"
        }
      ],
      "stateMutability": "view",
      "type": "function"
    },
    {
      "inputs": [
        {
          "internalType": "uint256",
          "name": "",
          "type": "uint256"
        }
      ],
      "name": "raffleParticipantsCount",
      "outputs": [
        {
          "internalType": "uint256",
          "name": "",
          "type": "uint256"
        }
      ],
      "stateMutability": "view",
      "type": "function"
    },
    {
      "inputs": [],
      "name": "rafflePrice",
      "outputs": [
        {
          "internalType": "uint256",
          "name": "",
          "type": "uint256"
        }
      ],
      "stateMutability": "view",
      "type": "function"
    },
    {
      "inputs": [
        {
          "internalType": "uint256",
          "name": "",
          "type": "uint256"
        }
      ],
      "name": "rafflePriceDownCount",
      "outputs": [
        {
          "internalType": "uint256",
          "name": "",
          "type": "uint256"
        }
      ],
      "stateMutability": "view",
      "type": "function"
    },
    {
      "inputs": [
        {
          "internalType": "uint256",
          "name": "",
          "type": "uint256"
        }
      ],
      "name": "rafflePriceRaiseCount",
      "outputs": [
        {
          "internalType": "uint256",
          "name": "",
          "type": "uint256"
        }
      ],
      "stateMutability": "view",
      "type": "function"
    },
    {
      "inputs": [
        {
          "internalType": "uint256",
          "name": "",
          "type": "uint256"
        }
      ],
      "name": "rafflePrize",
      "outputs": [
        {
          "internalType": "uint256",
          "name": "",
          "type": "uint256"
        }
      ],
      "stateMutability": "view",
      "type": "function"
    },
    {
      "inputs": [
        {
          "internalType": "uint256",
          "name": "",
          "type": "uint256"
        }
      ],
      "name": "raffleResult",
      "outputs": [
        {
          "internalType": "bool",
          "name": "",
          "type": "bool"
        }
      ],
      "stateMutability": "view",
      "type": "function"
    },
    {
      "inputs": [],
      "name": "renounceOwnership",
      "outputs": [],
      "stateMutability": "nonpayable",
      "type": "function"
    },
    {
      "inputs": [
        {
          "internalType": "uint256",
          "name": "btcPrice",
          "type": "uint256"
        }
      ],
      "name": "setRaffleResult",
      "outputs": [],
      "stateMutability": "nonpayable",
      "type": "function"
    },
    {
      "inputs": [
        {
          "internalType": "address",
          "name": "vault",
          "type": "address"
        }
      ],
      "name": "setVault",
      "outputs": [],
      "stateMutability": "nonpayable",
      "type": "function"
    },
    {
      "inputs": [
        {
          "internalType": "address",
          "name": "newOwner",
          "type": "address"
        }
      ],
      "name": "transferOwnership",
      "outputs": [],
      "stateMutability": "nonpayable",
      "type": "function"
    },
    {
      "inputs": [],
      "name": "unpause",
      "outputs": [],
      "stateMutability": "nonpayable",
      "type": "function"
    },
    {
      "inputs": [
        {
          "internalType": "uint256",
          "name": "amount",
          "type": "uint256"
        }
      ],
      "name": "withdrawUser",
      "outputs": [
        {
          "internalType": "bool",
          "name": "",
          "type": "bool"
        }
      ],
      "stateMutability": "nonpayable",
      "type": "function"
    },
    {
      "inputs": [
        {
          "internalType": "uint256",
          "name": "amount",
          "type": "uint256"
        }
      ],
      "name": "withdrawValut",
      "outputs": [
        {
          "internalType": "bool",
          "name": "",
          "type": "bool"
        }
      ],
      "stateMutability": "nonpayable",
      "type": "function"
    }
  ],
  "bytecode": "0x60806040526000600555670de0b6b3a764000060065534801561002157600080fd5b506040516111cc3803806111cc833981016040819052610040916100df565b6000805460ff1916905561005333610086565b60038054336001600160a01b031991821617909155600280549091166001600160a01b039290921691909117905561010f565b600080546001600160a01b03838116610100818102610100600160a81b0319851617855560405193049190911692909183917f8be0079c531659141344cd1fd0a4f28419497f9722a3daafe3b4186f6b6457e091a35050565b6000602082840312156100f157600080fd5b81516001600160a01b038116811461010857600080fd5b9392505050565b6110ae8061011e6000396000f3fe608060405234801561001057600080fd5b506004361061014d5760003560e01c80637432af55116100c3578063bad83a9f1161007c578063bad83a9f146102fa578063dab70e3c1461031a578063eb9642911461032d578063f2fde38b14610340578063f8d8679414610353578063fdaeccf41461035c57600080fd5b80637432af551461025457806375e63f6314610267578063806a91f2146102955780638456cb59146102b55780638da5cb5b146102bd578063b6b55f25146102e757600080fd5b80635ea54619116101155780635ea54619146101db5780636817031b146101fb5780636a4478e51461020e5780636c1c70bd14610216578063715018a614610229578063723dfc9e1461023157600080fd5b80630f37ed191461015257806312065fe0146101855780631397aaf91461019a5780633f4ba83a146101ba5780635c975abb146101c4575b600080fd5b610172610160366004610e75565b600d6020526000908152604090205481565b6040519081526020015b60405180910390f35b33600090815260046020526040902054610172565b6101726101a8366004610e75565b600c6020526000908152604090205481565b6101c2610390565b005b60005460ff165b604051901515815260200161017c565b6101726101e9366004610e75565b600b6020526000908152604090205481565b6101c2610209366004610ea5565b6103d3565b610172610425565b6101cb610224366004610e75565b61049b565b6101c2610612565b6101cb61023f366004610e75565b600e6020526000908152604090205460ff1681565b6101c2610262366004610ed5565b61064c565b6101cb610275366004610ef2565b600760209081526000928352604080842090915290825290205460ff1681565b6101726102a3366004610e75565b600a6020526000908152604090205481565b6101c261074b565b60005461010090046001600160a01b03165b6040516001600160a01b03909116815260200161017c565b6101c26102f5366004610e75565b610783565b610172610308366004610e75565b60096020526000908152604090205481565b6101cb610328366004610e75565b6108f3565b6101c261033b366004610e75565b61095d565b6101c261034e366004610ea5565b610a5e565b61017260065481565b6102cf61036a366004610f1e565b60086020908152600092835260408084209091529082529020546001600160a01b031681565b6000546001600160a01b036101009091041633146103c95760405162461bcd60e51b81526004016103c090610f40565b60405180910390fd5b6103d1610afc565b565b6000546001600160a01b036101009091041633146104035760405162461bcd60e51b81526004016103c090610f40565b600380546001600160a01b0319166001600160a01b0392909216919091179055565b6003546000906001600160a01b0316331461047c5760405162461bcd60e51b815260206004820152601760248201527610d85b1b195c881a5cc81b9bdd081d1a194815985d5b1d604a1b60448201526064016103c0565b506003546001600160a01b031660009081526004602052604090205490565b6003546000906001600160a01b031633146104f25760405162461bcd60e51b815260206004820152601760248201527610d85b1b195c881a5cc81b9bdd081d1a194815985d5b1d604a1b60448201526064016103c0565b81600554116105135760405162461bcd60e51b81526004016103c090610f75565b6002546003546040516370a0823160e01b815230600482018190526001600160a01b03938416936323b872dd93919291169084906370a08231906024015b602060405180830381865afa15801561056e573d6000803e3d6000fd5b505050506040513d601f19601f820116820180604052508101906105929190610fa3565b6040516001600160e01b031960e086901b1681526001600160a01b03938416600482015292909116602483015260448201526064016020604051808303816000875af11580156105e6573d6000803e3d6000fd5b505050506040513d601f19601f8201168201806040525081019061060a9190610fbc565b90505b919050565b6000546001600160a01b036101009091041633146106425760405162461bcd60e51b81526004016103c090610f40565b6103d16000610b8f565b600654336000908152600460205260409020541161067c5760405162461bcd60e51b81526004016103c090610f75565b600180546000908152600860209081526040808320600b8352818420548452825280832080546001600160a01b0319163390811790915584548452600783528184209084529091529020805483151560ff19909116811790915590036107035760015460009081526009602052604081208054916106f983610fef565b9190505550610726565b6001546000908152600a6020526040812080549161072083610fef565b91905055505b6001546000908152600b6020526040812080549161074383610fef565b919050555050565b6000546001600160a01b0361010090910416331461077b5760405162461bcd60e51b81526004016103c090610f40565b6103d1610be8565b6002546040516370a0823160e01b815233600482015282916001600160a01b0316906370a0823190602401602060405180830381865afa1580156107cb573d6000803e3d6000fd5b505050506040513d601f19601f820116820180604052508101906107ef9190610fa3565b10156108495760405162461bcd60e51b8152602060048201526024808201527f596f75722057616c6c657420646f6573206e6f74206861766520656e6f7567686044820152630814951560e21b60648201526084016103c0565b6002546040516323b872dd60e01b8152336004820152306024820152604481018390526001600160a01b03909116906323b872dd906064016020604051808303816000875af11580156108a0573d6000803e3d6000fd5b505050506040513d601f19601f820116820180604052508101906108c49190610fbc565b50336000908152600460205260409020546108e0908290611008565b3360009081526004602052604090205550565b3360009081526004602052604081205482106109215760405162461bcd60e51b81526004016103c090610f75565b6002546040516370a0823160e01b815230600482018190526001600160a01b03909216916323b872dd91339084906370a0823190602401610551565b6000546001600160a01b0361010090910416331461098d5760405162461bcd60e51b81526004016103c090610f40565b600180546000908152600d602052604090208290555415610a4b57600180546000818152600d602081905260408220549390926109ca9190611020565b8152602001908152602001600020541015610a17576001600e6000600180546109f39190611020565b81526020810191909152604001600020805460ff1916911515919091179055610a4b565b6000600e600060018054610a2b9190611020565b81526020810191909152604001600020805460ff19169115159190911790555b610a53610c63565b610a5b610e5e565b50565b6000546001600160a01b03610100909104163314610a8e5760405162461bcd60e51b81526004016103c090610f40565b6001600160a01b038116610af35760405162461bcd60e51b815260206004820152602660248201527f4f776e61626c653a206e6577206f776e657220697320746865207a65726f206160448201526564647265737360d01b60648201526084016103c0565b610a5b81610b8f565b60005460ff16610b455760405162461bcd60e51b815260206004820152601460248201527314185d5cd8589b194e881b9bdd081c185d5cd95960621b60448201526064016103c0565b6000805460ff191690557f5db9ee0a495bf2e6ff9c91a7834c1ba4fdd244a5e8aa4e537bd38aeae4b073aa335b6040516001600160a01b03909116815260200160405180910390a1565b600080546001600160a01b03838116610100818102610100600160a81b0319851617855560405193049190911692909183917f8be0079c531659141344cd1fd0a4f28419497f9722a3daafe3b4186f6b6457e091a35050565b60005460ff1615610c2e5760405162461bcd60e51b815260206004820152601060248201526f14185d5cd8589b194e881c185d5cd95960821b60448201526064016103c0565b6000805460ff191660011790557f62e78cea01bee320cd4e420270b5ea74000d11b0c9f74754ebdbfc544b05a258610b723390565b60008060018054610c749190611020565b6000818152600e602052604090205490915060ff161515600103610ca8576000818152600960205260409020549150610cba565b6000818152600a602052604090205491505b6000818152600b6020526040812054600654601491610cd891611037565b610ce29190611056565b905080600554610cf29190611008565b6005556000828152600b60205260409020546006548491606491610d169190611037565b610d2190605f611037565b610d2b9190611056565b610d359190611056565b6000838152600c60205260408120919091555b6000838152600b6020526040902054811015610e58576000838152600860209081526040808320848452825280832054868452600783528184206001600160a01b0390911680855290835281842054878552600e90935292205460ff918216918215159116151503610e03576000858152600c60209081526040808320546001600160a01b0386168452600490925290912054610de59190611008565b6001600160a01b038316600090815260046020526040902055610e43565b6006546001600160a01b038316600090815260046020526040902054610e299190611020565b6001600160a01b0383166000908152600460205260409020555b50508080610e5090610fef565b915050610d48565b50505050565b60018054906000610e6e83610fef565b9190505550565b600060208284031215610e8757600080fd5b5035919050565b80356001600160a01b038116811461060d57600080fd5b600060208284031215610eb757600080fd5b610ec082610e8e565b9392505050565b8015158114610a5b57600080fd5b600060208284031215610ee757600080fd5b8135610ec081610ec7565b60008060408385031215610f0557600080fd5b82359150610f1560208401610e8e565b90509250929050565b60008060408385031215610f3157600080fd5b50508035926020909101359150565b6020808252818101527f4f776e61626c653a2063616c6c6572206973206e6f7420746865206f776e6572604082015260600190565b602080825260149082015273496e73756666696369656e742042616c616e636560601b604082015260600190565b600060208284031215610fb557600080fd5b5051919050565b600060208284031215610fce57600080fd5b8151610ec081610ec7565b634e487b7160e01b600052601160045260246000fd5b60006001820161100157611001610fd9565b5060010190565b6000821982111561101b5761101b610fd9565b500190565b60008282101561103257611032610fd9565b500390565b600081600019048311821515161561105157611051610fd9565b500290565b60008261107357634e487b7160e01b600052601260045260246000fd5b50049056fea2646970667358221220971edf2005153622471a9764fee67701823a5a96f952daa65132760240d412cc64736f6c634300080e0033",
  "linkReferences": {},
  "deployedLinkReferences": {}
}